:020000040800F2
:10000000C8E70220750300080F8F0008816200080E
:10001000AF8A0008B92A00084D2E01080000000030
:10002000000000000000000000000000290200089D
:100030002D41000800000000ED02000861030008E7
:100040008F0300088F0300088F0300088F03000848
:100050008F0300088F0300088F0300088F03000838
:100060008F030008954200088F0300088F030008E3
:100070008F0300088F0300088F0300088F03000818
:100080008F0300088F0300088F0300088F03000808
:100090008F0300088F0300088F0300088F030008F8
:1000A0008F0300088F0300088F0300088F030008E8
:1000B0008F0300088F0300088F0300088F030008D8
:1000C0008F0300088F0300088F0300088F030008C8
:1000D0008F0300088F030008A91F01088F03000881
:1000E0008F0300088F0300088F0300088F030008A8
:1000F0008F0300088F0300088F0300088F03000898
:100100008F0300088F0300088F0300088F03000887
:100110008F0300088F0300088F0300088F03000877
:100120008F030008113C00088F0300087D3C000885
:100130008F030008694100088F0300088F0300083F
:100140008F0300088F0300088F0300088F03000847
:100150008F0300088F0300088F0300088F03000837
:100160008F0300088F0300088F0300088F03000827
:100170008F0300088F030008913900088F030008DF
:100180008F0300088F0300088F0300088F03000807
:100190008F0300088F0300088F0300088F030008F7
:1001A0008F0300088F0300088F030008DFF80CD0CE
:1001B00000F068FE0048004799D70108C8E7022010
:1001C00080F309887047EFF309807047684680F331
:1001D000098804480078C00714BF0220032080F378
:1001E0001488704760850208DFF818C0EFF30583B4
:1001F0001B0618BF6047EFF31483DB0708BF604797
:1002000000DF704725E90108DFF818C0EFF3058328
:100210001B0618BF6047EFF31483DB0708BF604776
:1002200000DF704769EB0108EFF30980816911F87D
:10023000021C01B142E010B590E80F10E047BDE8A4
:100240001040EFF3098C254B93E80600914232D021
:1002500041B91EF0100F16D12149086820F00100A5
:10026000086010E00CB41EF0100F06BF2CED108AD1
:100270000323012381F826302CE9F00FC1F82CC0AC
:100280001EF022FF0CBC1A60D2F82CC0BCE8F00FA4
:1002900092F8263013F0020F1ABFBCEC108A6FF0F0
:1002A000120E6FF0020E8CF3098813F0010F08BFD5
:1002B000704792F82500CCF80000704710B5094A45
:1002C0001268914209D8084C54F8214090E80F1068
:1002D000A047EFF3098C8CE80F0010BD300200201E
:1002E00034EF00E05C1600085C16000810B51EF044
:1002F00003FEBDE81040194B93E80600914208BF89
:1003000070470CB4EFF3098C1EF0100F06BF2CEDF4
:10031000108A0223002381F826302CE9F00FC1F85F
:100320002CC01EF0D1FE0CBC1A60D2F82CC0BCE868
:10033000F00F92F8263013F0020F1ABFBCEC108AAF
:100340006FF0120E6FF0020E8CF3098813F0010F9C
:100350001CBF92F82530CCF80030704730020020E6
:1003600010B51EF081FFC4E710B51DF027FC1EF08C
:100370007BFFBEE70648804706480047FEE7FEE7EA
:10038000FEE7FEE7FEE7FEE7FEE7FEE7FEE7FEE745
:1003900031000108AD01000840EA01039B0703D0CA
:1003A00009E008C9121F08C0042AFAD203E011F8B4
:1003B000013B00F8013B521EF9D27047D2B201E076
:1003C00000F8012B491EFBD270470022F6E710B55A
:1003D00013460A4604461946FFF7F0FF204610BDB3
:1003E000421E12F8013F002BFBD111F8013B02F82D
:1003F000013B002BF9D1704730B505462A460B4624
:1004000012F8010B13F8014B08B1A042F8D01CB14F
:10041000002802D06D1CF1E7284630BD10B5044617
:1004200004E00B7800F8013B03B1491C521EF8D2DE
:10043000204610BD421C10F8011B0029FBD1801A78
:10044000704710B5002200E0521C835C8C5CA34214
:1004500001D1002BF8D1D8B2E1B2401A10BD034649
:1004600011F8012B00F8012B002AF9D1184670472A
:1004700030B505460020034600E05B1C934205D2E0
:10048000EC5CC85C201A01D1002CF6D130BD000014
:100490000FB400B58DB010A909900B9000914FF0EA
:1004A000FF300A9000200C90054806900548079000
:1004B0006A4609A80F9900F043FB0DB05DF814FBE4
:1004C0005D0B00087B0B00082DE9FF5F1D464FF018
:1004D000FF3BD5E9014691465F464FF00008A96908
:1004E0007F1C01988847296A824688470028F6D1F0
:1004F000BAF1FF3F0CD024F4C064002E19DD600671
:1005000014D5BAF12B0F09D0BAF12D0F0ED103E09B
:10051000584604B0BDE8F09F44F48064A9697F1C8C
:1005200001988847761E8246002E02DDBAF1300F10
:1005300003D0B9F1000F26D032E0A969761E44F449
:1005400000747F1C019888478246002E05DDBAF1B1
:10055000780F06D0BAF1580F03D0B9F1000F10D0C0
:100560001EE0B9F1000F02D0B9F1100F18D1A9693E
:10057000761E24F400747F1C019888478246102060
:1005800002E0082000E00A20814609E008FB090893
:10059000A969761E44F400747F1C0198884782463E
:1005A000002E05DD4946504600F0B5FA0028EDDA88
:1005B000E96901988847A00502D46FF00100A8E717
:1005C000E00725D1600613D5600502D5C8F100000B
:1005D00000E0404629680A1D2A600968220501D505
:1005E000087015E0220701D5088011E008600FE0CF
:1005F0002868011D29600068210502D580F8008067
:1006000006E0210702D5A0F8008001E0C0F80080D4
:1006100038467EE770B5064612F0A8FC0468054629
:100620000A220021304600F007FB2C6070BD2DE946
:10063000FE4F804681EA0300C00F0C46009021F077
:10064000004123F00045B8EB0200A94105D2404625
:10065000214690461C460B46024623F000401043BC
:1006600047D0270DC7F30A00C3F30A510290401A7E
:10067000019040286BDAC3F3130040F4801B00980C
:10068000924620B10023D2EB030A63EB0B0B0198D7
:100690005946C0F14002504600F00CFA06460D469D
:1006A00050465946019A00F024FA10EB08006141C7
:1006B000002487EA115284EAE7731A4340D0009A73
:1006C00062B3019A012A4FEA075215DC001B61EB65
:1006D00002014FF0004202EA0752CDE90042001C3D
:1006E00041F5801132462B4600F024FB03B0BDE8F3
:1006F000F08F40462146F9E7001B61EB0201001C28
:1007000041F5801300185B412018A2F5001747EB54
:10071000030140EAD570B6196D4111E06D084FEA4A
:10072000360645EAC0754FEA0752001B61EB02012D
:10073000001C41F5801149084FEA30000019514171
:1007400032462B4603B0BDE8F04F00F0E4BA009803
:10075000012240000023D0EB020263EBE07300981B
:1007600021464FEAE074B8EB000061EB0401E9E7D1
:1007700083F000435BE781F0004158E72DE9FE4F2D
:1007800081EA030404F0004421F0004100944FF09A
:10079000000B23F0004350EA01045ED052EA030448
:1007A0005BD0C3F30A54C1F30A552C44A4F2F334CA
:1007B0000194A0FB0254C1F3130141F48011C3F36F
:1007C000130343F4801301FB024400FB034E840A2D
:1007D000970A44EA815447EA8357A4FB07680295C5
:1007E0008D0A05FB07854FEA932C04FB0C54270563
:1007F000029D4FEA065847EA1637B5EB08056EEB3F
:10080000070C870E920E47EA811742EA8312A7FB74
:100810000201B6EB0B0164EB00042B0D43EA0C3331
:100820005E1844EB1C50DA465146E7FB0201C5F363
:1008300013044FEA0B3343EA14534FEA0432019C8A
:1008400043EA0603A4F10C040294009CCDE900B431
:1008500000F070FA03B0BDE8F08F00200146F9E720
:100860002DE9F04D81EA030404F0004B21F000452E
:1008700014464FF0000A23F0004150EA050220D050
:1008800054EA01021DD0C5F30A570246C5F313030B
:10089000C1F31300C1F30A5640F4801543F48013EA
:1008A000A7EB0608101BD64608F2FD3873EB0500CF
:1008B00002D308F1010801E092185B41B8F1000F82
:1008C00003DA00200146BDE8F08D00204FF48011CE
:1008D000064684460EE0171B73EB050705D3121B73
:1008E00063EB050306434CEA010C49084FEA30006C
:1008F00092185B4150EA0107EDD152EA030012D091
:1009000082EA040083EA0501084305D0101BAB41CD
:1009100006D20122002306E000224FF0004302E04D
:100920006FF0010253101AEB06004CEB085110EB6C
:100930000A0041EB0B01BDE8F04D00F0ECB90EB53B
:1009400040F2334102910021CDE900110A460B46E5
:1009500000F0F0F903B000BD70B5C1F30A5201F028
:1009600000450024C1F3130140F2FF3341F480112C
:100970009A4201DA002070BD40F233439A42A2F25B
:10098000334203DC524200F0A4F800E090402C43D4
:10099000F1D0404270BDC1F30A5210B5C1F313014A
:1009A00040F2FF3341F480119A4201DA002010BD79
:1009B00040F233439A42A2F2334203DC524200F047
:1009C00088F810BD904010BD00F0004230F00040AB
:1009D0000AD0C10D01F56071C0F3160042EA015161
:1009E000C20840071143704700200146704701F0DC
:1009F000004330B421F0004150EA010206D00A0D54
:100A0000A2F56072C1F31301002A02DC30BC0020A1
:100A10007047440F44EAC104C100E01830BC00EB49
:100A2000C25000F041B930B50B46014600202022EB
:100A3000012409E021FA02F59D4205D303FA02F5EB
:100A4000491B04FA02F52844151EA2F10102F1DC4B
:100A500030BD2DE9F05F0546002092469B46884652
:100A60000646814640241BE028464146474622462A
:100A700000F02FF853465A46C01A914110D3114640
:100A80001846224600F016F82D1A67EB01084F466B
:100A900022460120002100F00DF817EB00094E411D
:100AA000201EA4F10104DFDC484631462A464346B5
:100AB000BDE8F09F202A04DB203A00FA02F1002072
:100AC00070479140C2F1200320FA03F3194390408C
:100AD0007047202A04DB203A21FA02F000217047F7
:100AE00021FA02F3D040C2F1200291400843194696
:100AF0007047202A06DBCB17203A41FA02F043EA7E
:100B0000E07306E041FA02F3D040C2F120029140C6
:100B10000843194670473A2800D2303820F02002A6
:100B2000412A01D3A2F13700884201D34FF0FF30B0
:100B3000704700000268114413780160184670473E
:100B4000D1600449516104491162002111611146CB
:100B500000F0B8B9350B0008B10E0008426842B188
:100B6000016811F8013B23B1521EC0E9001218467A
:100B700070470121C160881E704742685AB1C3683E
:100B8000016843B983688B4205D0491E521CC0E9F5
:100B90000012002070474FF0FF3070470FB4002361
:100BA00000B589B00CA900910B996FF00042CB60A1
:100BB0001E4B06931E4B07930423CDE901321D4AB9
:100BC000089202466B46002000F0A6FB09B05DF8D3
:100BD00014FB70B586B006464FF0FF300091CDE9AA
:100BE0000101002015460C4604903246694604A8CF
:100BF000FFF7D4FF02460498211825B108B1084632
:100C000000E020462860049800280DD0002A02DD6C
:100C10000098884208D0081B0094CDE901043246B0
:100C2000694604A8FFF7BAFF06B070BD5D0B000867
:100C30007B0B0008B10E00082DE9F04791460F46E6
:100C400080460446002614F8015B2DB100F02CF913
:100C50000068405DC007F6D12B2D02D02D2D18D095
:100C6000641E4A463946204600F072FC27B13968B6
:100C7000A14201D1C7F8008071054FF002040BD5E5
:100C80004042002803DD12F071F90460A007BDE8BE
:100C9000F08746F48066E4E70028F8DA12F066F997
:100CA00004606FF00040F2E70029A8BF7047401CC5
:100CB000490008BF20F00100704710B4B0FA80FC72
:100CC00000FA0CF050EA010404BF10BC704749B1AF
:100CD000CCF1200421FA04F411FA0CF118BF01211F
:100CE00021430843A3EB0C01CB1D4FEA00614FEAFF
:100CF000102042BF002010BC704700EBC3501044CE
:100D00000029A4BF10BC7047401C490008BF20F058
:100D1000010010BC704710B5141E73F1000408DA0E
:100D2000401C41F1000192185B411A4301D120F0AF
:100D3000010010BD2DE9F04D92469B4611B1B1FA6C
:100D400081F202E0B0FA80F220329046FFF7B2FE64
:100D500004460F4640EA0A0041EA0B0153465A4650
:100D6000084313D0114653EA010019D0C8F14002DC
:100D70005046FFF7AEFE05460E46504659464246DF
:100D8000FFF798FE084305D0012004E020463946CD
:100D9000BDE8F08D0020054346EAE0762C4337435A
:100DA0000A986305E40AA0EB08000022FD0A44EA61
:100DB00047540A3002D500200146E9E70105101921
:100DC0006941DDE9084500196941BDE8F04DA2E738
:100DD0000EB5C10F80EAE0700844CA07002140F256
:100DE00033438DE80E000A460B46FFF7A3FF03B01E
:100DF00000BDC1F30A52C1F3130140F2FF3341F4C5
:100E000080119A4202DA00200146704740F23343D3
:100E10009A42A2F2334202DC5242FFF75ABEFFF777
:100E200049BE000030B5041E71F1000404DB4FF030
:100E30000044404264EB0101141E73F1000405DB21
:100E40001C464FF00043524263EB04038B4208BF41
:100E5000824230BD30B5041E71F1000404DB4FF056
:100E60000044404264EB0101141E73F1000405DBF1
:100E70001C464FF00043524263EB0403994208BF03
:100E8000904230BD064C074D06E0E06840F001039B
:100E900094E8070098471034AC42F6D3FFF78AF97C
:100EA00090CD0208B0CD0208004870477CAB020824
:100EB00010B50446FFF7F8FF0068005D00F0010080
:100EC00010BD00002DE9F34F8BB04FF0000801F189
:100ED0000C000C464FF0010B46460DF1080A01903C
:100EE0006269012101989047051E2DD0252D2CD037
:100EF000216A8847C0B16269012101989047216A3F
:100F000088470028F7D1411E62690198904700E0A8
:100F1000761CA1690B988847216A88470028F7D179
:100F2000E1690B988847DBE7A1690B98884707467A
:100F3000A84201D1761CD3E7E1690B9888477F1C52
:100F400002D1B8F1000F6FD046E1002762693D463B
:100F50003946019890472A2804D1626901210198F5
:100F600090470125DFF8849262690121019890473A
:100F7000A0F130010A290AD24F45E5DC07EB8701D1
:100F800000EB4107303FDFD445F01005ECE7E90600
:100F900001D46FF000476C280AD04C2814D0682880
:100FA00015D06A280DD074281CD07A281AD01DE0DC
:100FB00062690121019890476C2802D045F0040530
:100FC00014E045F002050DE045F020050AE06269F5
:100FD000012101989047682802D045F0080505E0F6
:100FE00045F400656269012101989047C4E9015701
:100FF00065283DD019DC58287AD00CDC452837D03C
:1010000004DC252826D0412831D131E046282FD0D4
:1010100047282CD12CE05B2877D0612828D0632882
:101020007CD0642823D15AE0D0E06F2848D008DC77
:1010300066281DD067281BD0692821D06E2816D1BC
:1010400027E0702845D0732868D0752847D07828C5
:101050000DD14DE0A1690B988847054625283FF43E
:1010600069AFE1690B9888476D1C3FF46AAFB3E044
:1010700023466A466FF001000B9900F04DF99EE09F
:1010800045F040006060A80723464FF0000236D4C8
:101090003EE0E8077FF447AF2068011D216000684B
:1010A000290501D506701BE7290701D5068017E73A
:1010B000A90703D5F117C0E9006111E706600FE742
:1010C00045F040006060A80723464FF0080216D4A0
:1010D0001EE040F60E0125EA0100606016E045F0D2
:1010E00040006060A80723464FF00A0207D40FE0D3
:1010F00045F040006060A80708D5234610226FF035
:1011000001000B99AFF3008059E007E0234610225D
:101110006FF001000B99FFF7D7F950E04FF000098D
:101120004F464B46632802D05B2806D040E0E806D5
:1011300001D40120A06001273AE0626901210198F1
:1011400090475E2805D14FF0010962694946019830
:101150009047216939B900210A46534643F82120B6
:10116000491C0829FADBB0B3216969B9C11700EB42
:10117000D16253110AEB830122F01F02821A01206F
:101180000B68904003430B6062690121019890470E
:101190005D28E8D1B9F1000F09D00020514651F87F
:1011A0002020D24341F82020401C0828F7DB02AB66
:1011B000224600976FF001000B99AFF300800028E2
:1011C0000CDA401C08D1BBF1000F05D04FF0FF3006
:1011D0000DB0BDE8F08FFFE74046F9E7E90701D120
:1011E00008F1010806444FF0000B79E6CCCCCC0C9A
:1011F0002DE9FF4F087883B09946FF2805D0491C98
:101200002D2804D00024002008E000200BE0012459
:10121000F9E700EB800003EB4000491C0B78FF2B43
:10122000F7D104B1404200230293147819461D46B9
:101230002D2C01D02B2C04D1521C2D2C13D000248A
:101240000294AA461478FF2C0FD00A25A3FB057838
:1012500001FB05814FF0000C03FB0C11521CE3193C
:101260004AEB0101EEE70124EAE7814453EA010079
:1012700002D019F5C87F06DA03980021C0E90011F1
:1012800007B0BDE8F08F0025AE4E2F46DFF8B882DC
:10129000184600F0ACF9CDE90001B9F1000002DA1E
:1012A000C9F1000400E004460023A74A1AEB030B2F
:1012B00042EB045A12E0E00707D02A46334638468C
:1012C0004146FFF75BFA074688462A4633461046F2
:1012D0001946FFF753FA05460E466410002CEAD172
:1012E000DDE90001B9F1000F5A46534606DAFFF76F
:1012F000B7FA3A464346FFF7B3FA05E0FFF73EFA7E
:101300003A464346FFF73AFA029A0AB181F00041A1
:10131000039AC2E90001B3E72DE9FF4F1F468DB0E4
:10132000D7E901464FF0FF382E2045464FF000091F
:101330000B90B9696D1C0E988847396A82468847B8
:101340000028F6D1BAF1FF3F0AD024F4D064002E71
:1013500011DDBAF12B0F08D0BAF12D0F0BD102E03D
:10136000404611B08DE744F48064B9696D1C0E9855
:1013700088478246761E6946600501D52D2000E02B
:101380002B208DF8000001F1010B0DF1200809E080
:10139000B9696D1C0E98884782460F9844F4007412
:1013A000761E0560002E02DDBAF1300FF0D00B99E9
:1013B0008A453ED144F0800406E00F99681CA9F1EB
:1013C000010944F400740860B9696D1C761E0E981A
:1013D000884782463028F0D02BE00B998A4505D10A
:1013E000200603D444F08004761E18E0504612F024
:1013F00040FB08B30DF11301761E44F400748B45D5
:1014000008D2AAF130000BF8010B200607D5A9F18C
:10141000010003E0200602D409F101008146A00585
:1014200002D50F99681C0860B9696D1C0E98884731
:101430008246002ED1DC53E0002E51DDBAF1650F5B
:1014400002D0BAF1450F4BD1A00549D5B9696D1C41
:1014500024F44074761E0E9888478246002E0CDDD8
:101460002B2804D0BAF12D0F07D144F48074B96948
:101470006D1C0E9888478246761EE00501D52D2109
:1014800000E02B2108F8011BCDF82C8021E00DF1A4
:101490002901761E44F4007488450CD2AAF130006C
:1014A00010F0FF0088F8000002D10B99884509D997
:1014B00008F1010806E0E00501D5244801E042F208
:1014C0000F708146B9696D1C0E98884782460F9847
:1014D0000560002E04DD504612F0CBFA0028D6D16C
:1014E000F9690E988847FF208BF8000088F8000003
:1014F0000020069007904B466A4608A906A8FFF709
:1015000077FEA00502D46FF001002AE714F0240F43
:101510000AD0E00714D1DDE906123868031D3B60EC
:101520000068C0E900120BE0DDE90601FFF75FFA91
:101530000146E00704D13868021D3A600068016086
:1015400028460EE7000014400000F03FF1D8FFFFEE
:101550002DE9F05F82460078002715468B460AF198
:101560000104B946302801D09DB113E014F8010BF5
:101570000127782803D0582801D045B10AE00DB1E1
:10158000102D07D10027102514F8010B02E00825C3
:1015900000E00A250026B0460EE005FB080005FB2A
:1015A00006F1012701EB10461FFA80F8B6F5803FDF
:1015B00000D3B94614F8010B2946FFF7ACFA00280E
:1015C000EBDABBF1000F05D00FB1641E00E054460A
:1015D000CBF80040B9F1000F06D011F0C7FC022192
:1015E0000160C81EBDE8F09F48EA0640FAE70EB564
:1015F00040F2334202920022CDE900221346FFF767
:1016000099FB03B000BD70B58C1810F8015B15F0A4
:10161000070301D110F8013B2A1106D110F8012B64
:1016200003E010F8016B01F8016B5B1EF9D12B0789
:1016300005D40023521E0DD401F8013BFAE710F83F
:10164000013BCB1A921C03E013F8015B01F8015B2C
:10165000521EF9D5A142D8D3002070BD0000000071
:10166000FEB506460C462821E948FEF7AEFE002CE2
:101670007ED0002E7DD104EB840000EBC400E54950
:1016800011F82000012875D104EB840101EBC4019D
:10169000E04A02EB8101888D02F072FE04EB8400C7
:1016A00000EBC400DB4901EB8000D0ED080A30EE0E
:1016B000200A8DED000A04EB840101EBC401D54A38
:1016C00002EB8101C88D02F05BFE04EB840000EBAD
:1016D000C400D04901EB8000D0ED080A30EE200AAA
:1016E0008DED010A04EB840101EBC401C94A02EB50
:1016F0008101088E02F044FE04EB840000EBC4007C
:10170000C44901EB8000D0ED080A30EE200A8DEDCF
:10171000020ABF4800990160019941600299816005
:1017200000BF00250CE0BA4810F815000002B849C7
:1017300031F8151040EA2120B54921F815006D1C3B
:10174000062DF0DB0020B2498881C88104EB8400BB
:1017500000EBC400AF4901EB800090F824000128A1
:1017600001D1AB49C88204EB840000EBC40002E065
:10177000B6E00BE009E0A74901EB800090F82400F7
:10178000022802D10320A249C88240E1012EFCD1E7
:1017900004EB840000EBC4009E4901EB80019C48EF
:1017A0008968016004EB840000EBC400994901EBF7
:1017B00080019748C968416008F060FE04EB84002E
:1017C00000EBC400934901EB80019148096A8160F4
:1017D00000BF00250CE08E4810F8150000028C496F
:1017E00031F8151040EA2120894921F815006D1CB7
:1017F000062DF0DB04EB840000EBC400854911F8F2
:101800002000834988810020C88104EB840000EB1C
:10181000C400804901EB800040787D4908820020A7
:10182000488204EB840000EBC4007A4901EB80009D
:101830008078B8B904EB840000EBC40001EB8000B1
:10184000C07878B904EB840000EBC40001EB8000A1
:10185000007938B904EB840000EBC40001EB800090
:10186000407948B1042004EB840101EBC401694ACA
:1018700002EB810181F8320004EB840000EBC4002C
:10188000644901EB800090F832006149888204EBE2
:10189000840000EBC4005F4901EB800080785C4964
:1018A000C88204EB840000EBC4005A4901EB8000BD
:1018B000C0785749088304EB840000EBC400554905
:1018C00001EB800000795249488304EB840000EB6F
:1018D000C400504901EB800040794D49888396E06F
:1018E000002E74D14C48008802F04AFD4948D0EDE2
:1018F000080A30EE200A8DED000A4848008802F000
:101900003FFD4448D0ED080A30EE200A8DED010A73
:101910004348008802F034FD3E48D0ED080A30EE1E
:10192000200A8DED020A3A48009901600199416050
:1019300002998160002500BF0CE0354810F81500C1
:101940000002334931F8151040EA2120304921F8CE
:1019500015006D1C062DF0DB3248806F022803D184
:1019600001202B49888102E00020294988812D48E7
:10197000407F012802D12649C88102E00020244985
:10198000C881284890F88E00012802D12049088299
:1019900002E000201E4908822248007F012802D16F
:1019A0001B49488202E0002019494882194890F8F2
:1019B0002400012801D11649C882164890F8240055
:1019C000022824D103201249C88220E0FFE71048F2
:1019D0001049896801600F49C968416000200DF015
:1019E00001FE0B480B49096A8160002500BF0CE02D
:1019F000074810F815000002054931F8151040EAB3
:101A00002120034921F815006D1C062DF0DBFEBDD9
:101A1000B41B0120FC0D01201C0100201E01002030
:101A200020010020344700202DE9F04106460D46F4
:101A3000174600209649088148818871F01B48802C
:101A4000F11B681E08449249888028219148FEF7BE
:101A5000BCFC8F480078002870D1002400BF11E042
:101A60008B4A0C3202EB44025178894A0C3212F84C
:101A7000140003F079FC8648243000EB840080EDEC
:101A8000000A641C0A2CEBDB002400BF52E08049F2
:101A900049887F4A1289881800EBD0714A107C4926
:101AA000243101EB820191ED000ABCEEC00A10EE78
:101AB000101A092202EB4402774B99547449498861
:101AC000734A1289881800EBD0714A10704924318A
:101AD00031F82210C1F307210A2202EB4402995483
:101AE000641C6B4949886A4A1289881800EBD071D6
:101AF0004A106749243151F82210C1F307410922E5
:101B000002EB4402995462494988614A1289881853
:101B100000EBD0714A105E49243151F82210090EB1
:101B20000A2202EB4402995459480089401C584942
:101B30000881641CAC42AADBA5E0FFE7002400BFDB
:101B40009EE0534840882044142838DA00200921B8
:101B500001EB4401504A50544D494988081900EBA3
:101B6000D0714910A0EB410189B949494988484AD7
:101B70001289881800EBD0714A1045490C3111F8D0
:101B800012100A2202EB4402434B995411E04049DF
:101B900049883F4A1289881800EBD0714A103C49A5
:101BA0000C3101EB420149780A2202EB44023A4B24
:101BB000995437480089401C354908815FE0344812
:101BC00040882044142809D10020092101EB440158
:101BD000314A50540A2101EB440150542C484088AA
:101BE0002044152809D10020092101EB44012A4A8B
:101BF00050540A2101EB44015054254840882044A8
:101C000016280CD10020092101EB4401224A50542E
:101C1000224890F840020A2101EB440150541C482C
:101C200040882044172809D10020092101EB4401F4
:101C3000194A50540A2101EB440150541448408879
:101C4000204418280CD10020092101EB4401124A3C
:101C50005054124890F8CC000A2101EB4401505432
:101C60000B4840882044192809D10020092101EBA4
:101C70004401094A50540A2101EB44015054641CA8
:101C8000AC42FFF65EAF022001498871BDE8F081E9
:101C9000EC1B0120B41B012044100120344700201C
:101CA0002DE9F04105460F4616460024A0460020C7
:101CB0001349088148818871A81B4880A91B781E98
:101CC00008440F49888000BF00BF14E00C484188D9
:101CD000601C00EB8000800081420ADAE2B2084911
:101CE0004888394600F00EF88046B8F1000F00D160
:101CF00003E0601C84B20B2CE8DB00BFBDE8F08180
:101D0000EC1B01202DE9F0410746884615461420BA
:101D100000FB157086B2294908782946FFF7A0FC18
:101D20002648807918B90020244908814881002478
:101D300000BF26E03019224931F8100001121F4877
:101D40004089093000EB44001E4A115430191C49E7
:101D500011F81010194840890A3000EB4400115462
:101D600016480089401C1549088108464088401CD7
:101D7000488008460089404502D10220887104E06D
:101D8000641CC6F11400A042D4DC00BF0B4880796B
:101D9000022805D10020094908814881BDE8F08169
:101DA000012006498871084600894FF6FF7101EA53
:101DB0004000024948810120F0E70000EC1B0120AF
:101DC000B41B0120441001202DE9FC4106460C46BD
:101DD0001746002C7CD0354600BF6FE10F2D78D21E
:101DE000DFE805F0081247518993F6F4F3F2F1F0B9
:101DF000EFEEED00FE4800780002FD49098840EA58
:101E00002120FB49088047E1F94800780002F849A1
:101E1000098840EA2120F6490880084680780002B7
:101E2000498840EA2120F249488004EB840000EB15
:101E3000C400F04901EB8000ED490968816004EBC2
:101E4000840000EBC400EB4901EB8000D0ED020AF6
:101E50009FEDE91A70EE810AB0EE600A02F0ACFA6A
:101E600004EB840101EBC401E24A02EB8101088228
:101E700012E1DF4800790002DD49898840EA21202B
:101E8000DB49888008E1DA4800790002D84989886E
:101E900040EA2120D6498880084680790002C98816
:101EA00040EA2120D249C88004EB840000EBC40042
:101EB000D04901EB8000CE494968C16004EB840041
:101EC00000EBC400CB4901EB8000D0ED030A01E038
:101ED00009E1E0E09FEDC81A70EE810AB0EE600AF9
:101EE00002F06AFA04EB840101EBC401C14A02EB7F
:101EF00081014882D0E0BE48007A0002BC490989CD
:101F000040EA2120BA490881C6E0B948007A0002B7
:101F1000B749098940EA2120B54908810846807AF5
:101F20000002498940EA2120B14948810846806879
:101F3000009004EB840000EBC400AE4901EB80008C
:101F400090ED080ADDED000AB4EE600AF1EE10FA39
:101F500032D004EB840000EBC40001EB8000A44904
:101F60008968016204EB840000EBC400A14901EB25
:101F70008000D0ED020AB0EE600A02F01DFA04EB18
:101F8000840101EBC4019B4A02EB8101088204EB4E
:101F9000840000EBC400114601EB8000D0ED030A81
:101FA000B0EE600A02F008FA04EB840101EBC40110
:101FB000904A02EB8101488210F070FF6CE05BE018
:101FC0004BE03BE02BE01EE01CE010E00EE0FFE702
:101FD0008748007B04EB840101EBC401854A02F8C9
:101FE00021000121204601F02FF855E054E08048FF
:101FF000007C04EB840101EBC4017E4A02EB810109
:10200000487049E048E07A48007D04EB840101EB28
:10201000C401784A02EB810181F832003CE0744847
:10202000807D04EB840101EBC401724A02EB810163
:1020300088700021204601F007F82DE06C48007EF2
:1020400004EB840101EBC4016A4A02EB8101C87010
:102050000021204600F0F8FF1EE06548807E04EB7A
:10206000840101EBC401634A02EB81010871002184
:10207000204600F0E9FF0FE05D48007F04EB84019B
:1020800001EBC4015B4A02EB81014871002120464B
:1020900000F0DAFF00E000BF00BF58480089401C94
:1020A0005649088108464088401C488008460089F7
:1020B000B84202D10220887103E06D1C142DFFF696
:1020C0008DAE00BF204610F0ADFB04EB840000EBAA
:1020D000C400484911F82000012803D1484920468E
:1020E00003F0B2F9BCE0354600BFB3E0062D7DD267
:1020F000DFE805F0030D2A34515B3D48007800020B
:102100003B49098840EA21203949088090E0384855
:10211000007800023649098840EA212034490880C5
:10212000084680780002498840EA212030494880EA
:10213000304809688160D0ED020AB0EE600A02F012
:102140003BF92C49088273E02948007900022849AC
:10215000898840EA21202649888069E0244800795E
:1021600000022349898840EA2120214988800846C5
:1021700080790002C98840EA21201D49C8801D4895
:102180004968C160D0ED030AB0EE600A02F014F9AC
:10219000184948824CE01648007A0002144909891F
:1021A00040EA21201249088142E01148007A0002E9
:1021B0000F49098940EA21200D4908810846807AA3
:1021C0000002498940EA212009494881084680687F
:1021D0000090084890ED080ADDED000AB4EE600AB0
:1021E000F1EE10FA22D0896801620BE01FE00000D6
:1021F000B41B0120FC0D01200AD7A33BEC1B0120DE
:1022000044120220D0ED020AB0EE600A02F0D4F8C7
:10221000144908820846D0ED030AB0EE600A02F0C5
:10222000CBF81049488201200DF0DCF900E000BF36
:1022300000BF0D480089401C0B49088108464088B2
:10224000401C488008460089B84202D102208871AB
:1022500003E06D1C142DFFF649AF00BF10F01EFE09
:10226000BDE8FC81FC0D0120EC1B01202DE9F84F9D
:1022700081460F4692469B464FF00D0800250026EA
:1022800000200090BBF1000F01D14FF00A080020A0
:102290007D49088148818871A9EB0A004880A9EB33
:1022A0000A01781E08447849888028217748FEF77B
:1022B0008CF87548408814286EDA3DB2002400BFBF
:1022C00017E008F1010000EB44007149085C08EBDD
:1022D00044016F4A515C40EA01206B49498821441E
:1022E0006A4A22F81100681E05B2002D00DC06E0E3
:1022F000641C65484088C0F11400A042E1DC00BFC6
:102300003DB26149488800EBD071C1F347065E4990
:10231000488800EBD0714910A0EB4101C9B200918F
:10232000002400BF35E0009801280FD1700000EBB9
:102330004400401C554911F81010321952480C3015
:1023400000EB420041700020009017E0700000EBAD
:1023500044004E4911F8101032194B480C3000F867
:102360001210700000EB4400401C484911F8101096
:10237000321945480C3000EB42004170681E05B22E
:1023800041480089401C40490881002D00DC02E0E2
:10239000641C0A2CC7DB00BF3B4840883A490989C6
:1023A00008443949488008464088142867DB0024DF
:1023B00000BF61E0344840882044142801D1681EE1
:1023C00005B2314840882044152801D1681E05B265
:1023D0002D4840882044162819D1681E05B22A4885
:1023E000008908F1010101EB400000EB440028499D
:1023F000085C30B900202749A1F8400205F020F818
:1024000005E001202349A1F8400205F01EF81E480E
:1024100040882044172801D1681E05B21A48408818
:10242000204418281DD1681E05B21748008908F1FC
:10243000010101EB400000EB44001549085C40B984
:1024400000201449C1F8CC001021134802F0DDFB34
:1024500007E002200F49C1F8CC0010210E4802F01D
:10246000D2FB094840882044192801D1681E05B2D2
:10247000002D00DC02E0641C062C9BDB00BF022068
:1024800001498871BDE8F88FEC1B0120B41B0120C5
:10249000BC15012034470020000C02402DE9F84310
:1024A00005460E46174698460024A14600201549C9
:1024B000088148818871E81B4880E91B701E084428
:1024C0001049888000BF00BF17E00E484188601C9B
:1024D00000EB8000800081420DDAE2B2094BCDF8BA
:1024E000008019785888334600F00EF88146B9F11B
:1024F000000F00D103E0601C84B20B2CE5DB00BFB1
:10250000BDE8F883EC1B01202DE9F05F0746884603
:1025100015469946DDF828B04FF00D0A28212948C4
:10252000FDF753FF142000FB157086B2BBF1000FBE
:1025300001D14FF00A0AB8F1010F40D12248807949
:1025400018B90020204908814881002400BF16E006
:102550001D4841890AF10100084400EB44001B4971
:10256000085C19494989514401EB4401174A515CFF
:1025700040EA01203119134A22F81100641CC6F107
:102580001400A042E4DC4A4629463046FFF71CFC12
:102590000D488079022805D100200B490881488127
:1025A000BDE8F09F012008498871084600894FF670
:1025B000FF7101EA4000044948810120F0E7002052
:1025C000EEE70000B41B0120EC1B0120BC1501202C
:1025D000F0B5034600240025002600BF302B01DBA8
:1025E000392B01DD002302E0A3F13007FEB23029D0
:1025F00001DB392901DD002102E0A1F13007FDB244
:10260000302A01DB392A01DD002202E0A2F1300785
:10261000FCB26427774305EB850C07EB4C07274496
:10262000F8B2F0BD30B503460A46002020E01C5C3D
:102630002109092904DC01F1300402F8104003E00B
:1026400001F1570402F810401C5C04F00F01092945
:1026500006DC01F13004012505EB4005545505E089
:1026600001F15704012505EB40055455441CA0B267
:102670001028DCDB30BD00001CB504468B4890F808
:102680008E00012818D18948C06F28B9884A89A1CD
:10269000204610F03FFC1DE08448C06F022805D1A1
:1026A000834A87A1204610F035FC13E0804A88A1B8
:1026B000204610F02FFC0DE07C48808A28B97C4A27
:1026C00086A1204610F026FC04E0794A85A1204628
:1026D00010F020FC7548B0F8E800012806D1844AC3
:1026E00084A104F1280010F015FC05E0834A81A1C3
:1026F00004F1280010F00EFC8148C07880498978E8
:10270000CDE900107E48437802787EA104F15000A4
:1027100010F000FC7A48C07A7949897ACDE9001036
:102720007748437A027A7BA104F1640010F0F2FB4F
:102730007C48B0F840207CA104F1780010F0EAFB5E
:102740006F48C0796E498979CDE900106C484379AA
:10275000027970A104F18C0010F0DCFB534874A1E5
:10276000826F04F1A00010F0D5FB504872A10269FD
:1027700004F1A60010F0CEFB6A48B0F8502070A11A
:1027800004F1AC0010F0C6FB4848428D6EA104F184
:10279000B20010F0BFFB4548828D6DA104F1B80076
:1027A00010F0B8FB41486CA1426804F1C80010F079
:1027B000B1FB3E486AA1D0F8902004F1CE0010F0A1
:1027C000A9FB3A48B0F8B22067A104F1D40010F098
:1027D000A1FB5448428C66A104F1DC0010F09AFB86
:1027E0003248C08B28B964A104F1E20010F092FBDA
:1027F00004E062A104F1E20010F08CFB2B48C28DD2
:1028000060A104F1E80010F085FB28485FA1C268D0
:1028100004F1F00010F07EFB24485EA1826904F10F
:10282000F60010F077FB21488069012803D01F488B
:102830008069032802D100201C4988611B48806FF1
:10284000F0B15648408A70B92D48C0782C49897833
:10285000CDE900102A484378027851A104F58C7024
:1028600010F058FB11E02F48C069030E2D48C069D5
:10287000C0F3074253A104F58C7010F04BFB04E049
:1028800058A104F58C7010F045FB0848B0F8E8003A
:10289000012807D159A104F5A07010F03BFB4FF4BB
:1028A000B4701CBD4FF4A070FBE70000344700205B
:1028B000583700205645522E25734C4F57000000C4
:1028C0005645522E25734C4F572E315200000000B2
:1028D0005645522E25734C4F572E35005645522ED5
:1028E000257300005645522E2573535441000000B5
:1028F0009C7502084E414D45257300008C750208F9
:10290000360000204950202025642E25642E2564A1
:102910002E2564002025642E25642E25642E256432
:102920000000000080490020504F525425640000F0
:1029300053454E53256400004F504D3A2564000026
:10294000436F6E3A256400004244565425640000EB
:10295000464C49502564000057445420256400002B
:102960006670733A256400005073753A2564000060
:102970004155544825640000504F45004558547057
:10298000777200005556463A2564000053454320AF
:102990002564000052535420256400004415022091
:1029A00052545331727473703A2F2F25642E25645C
:1029B0002E25642E25643A3535342F6D6A7065678F
:1029C0002F310000525453317274703A2F2F32332A
:1029D000392E3235352E25642E25643A3334303085
:1029E0003000000049522053656E736F72204368B7
:1029F00065636B204552522E000000005254533242
:102A0000727473703A2F2F3C49503E3A3535342F4B
:102A10006D6A7065672F32002DE9F04104460D465E
:102A2000174600260BE035F8020B24F8020B761C43
:102A3000B6F5A04F03D30026DFF810C000DF381E24
:102A4000A7F10107EFD1BDE8F0810000E5F401082E
:102A5000F0B503460C46002500261AE034F8021BA8
:102A600041B14FF47F4707EA012747EA112023F8D5
:102A7000020B00E09B1C0D4F3F88B84201DA0B4F60
:102A800038800B4F3F88B84201DD094F388005443C
:102A9000761C171EA2F1010C1FFA8CF2DED1B5FBD9
:102AA000F6F7DFF810C0ACF80070F0BD1E01002092
:102AB0001C0100202001002001E006F06FFAFCE775
:102AC00010B5142209490A4800F030FE002408E03D
:102AD0000848005D0549095D884201D0002010BD0D
:102AE000641C132CF4D90120F9E7000016430020E0
:102AF000BC420020DA42002010B54FF416710F4896
:102B0000FDF763FC1AF0DEFF00040C4908601AF0C0
:102B1000D9FF0A490968084308490860084600685F
:102B200040F0004008604FF0FF308860002088814E
:102B3000C88108820CF036FD10BD0000441502204B
:102B400008B54FF050405F4908605F485F49086032
:102B50005F4860490860012008F096F900205E494E
:102B6000A1F8E8005D480088022872D107F0E0F87B
:102B700047F2305001F0DBFA684607F029F847F2D7
:102B8000305001F0D4FA684607F022F89DF80000B2
:102B9000562803D09DF8010040287AD14E48B0F85D
:102BA000EA00042802DB00204D49088006F02EFBD5
:102BB00047F2305001F0BBFA4948008850B9464806
:102BC000B0F8EA0030B906F08DFF01204249A1F8C3
:102BD000E8005EE04248008858B93F48B0F8EA0093
:102BE000012806D106F0C4FF01203B49A1F8E80006
:102BF0004FE03B48008860B93748B0F8EA00042845
:102C000007D1032006F01AFE01203349A1F8E8009D
:102C10003FE03348008860B92F48B0F8EA00082840
:102C200007D1062006F00AFE01202B49A1F8E80092
:102C30002FE02B48008868B92748B0F8EA00102830
:102C400008D1082006F0FAFD01202349A1F8E80088
:102C50001FE035E02248008860B91F48B0F8EA005C
:102C6000202807D10C2006F0E9FD01201A49A1F81F
:102C7000E8000EE01A48008858B91748B0F8EA0092
:102C8000402806D1102006F0D9FD01201249A1F8F4
:102C9000E8001148B0F8E800012811D101211148DD
:102CA00001F070F8012000F045FE012000F02AFE3E
:102CB00000200949C1F8EC0002210B4801F0A3FFF4
:102CC00008BD0000F8010020000010D0FC01002029
:102CD000000020D000020020344700200402002021
:102CE00006020020286402400020024070B504461D
:102CF0000625042C01D1032512E0082C01D106255C
:102D00000EE0102C01D108250AE0202C01D10C2561
:102D100006E0402C01D1102502E0802C00D11325C3
:102D20000D48B0F8EA00A04213D00B48A0F8EA40E2
:102D30000A20DFF828C000DF72B6284606F07EFDC4
:102D400062B60FF0C1FA0A20DFF810C000DF0020E1
:102D500070BD0120FCE700003447002079EA01083B
:102D60002DE9F84F0646002500274FF01008A94628
:102D7000AA463446641C04226946204607F0AEF891
:102D800007E020782E2800D16D1C641C042D00D192
:102D900000E0F6E700BF0FE0207820280BD007EB1B
:102DA00087004FF6FF7101EA400720783038384439
:102DB00087B2641C00E000E0EEE700BF9DF803006E
:102DC00000287DD09DF80000564908709DF801004C
:102DD00048709DF8020088709DF80300C870524842
:102DE000A0F8407051480078022809D14F48407837
:102DF00030B94E48807818B99DF803004B494871A6
:102E00000025641C04226946204607F067F809E0A3
:102E100020782E2800D16D1C641C042D02D14FF0A7
:102E2000010904E0B8F10000A8F10108F0D100BFE9
:102E3000B9F1010F0ED19DF800003A4908729DF8D2
:102E40000110384841729DF8021081729DF80310FC
:102E5000C17208E0FF2033490872FF2131484172F6
:102E600081720021C17204226946204607F036F8BB
:102E70004FF01008002509E020782E2800D16D1CA5
:102E8000641C042D02D14FF0010A04E0B8F10000E7
:102E9000A8F10108F0D100BFBAF1010F30D12148EB
:102EA00000789DF8001088421CD11E4840789DF89B
:102EB0000110884216D11B4880789DF8021000E06E
:102EC0002DE088420ED19DF80000164908719DF84A
:102ED0000110144841719DF8021081719DF8031092
:102EE000C1711AE09DF800000E4908719DF80110AB
:102EF0000C4841719DF8021081710121C1710CE0F3
:102F00009DF80000074908719DF8011005484171BE
:102F10009DF8021081710121C1710FF011FABDE815
:102F2000F88F00003600002080490020300000208B
:102F3000F0B59DB00446002625466D1C0F2229469B
:102F400019A8FDF76BFA0F2205F10F0115A8FDF77F
:102F500065FA19A8FDF76EFA07463A4619A92148FD
:102F6000FDF786FA98B915A91E48FDF778FA1D4AAB
:102F70001DA101A80FF0CEFF01A805F025FF012635
:102F800001201F494884488C0FF0AEFE08E019AAC2
:102F90001CA101A80FF0BEFF01A805F015FF002637
:102FA00019A91F480068FDF74CFAC0B915A91C48BB
:102FB0000068FDF746FA90B9194801680948FDF71D
:102FC0004EFA184948691021FDF7FFF90FF066FF26
:102FD000012600200A494884488C0FF085FE3046BF
:102FE0001DB0F0BD5C4800200A0D203E20707764C3
:102FF00020757064617465203A20257320000000FC
:10300000804900200A0D203E3E63757272656E7421
:103010002070776420455252203A2025732000000A
:10302000800100203085020870B5044625466D1CDD
:103030002878042805DC28780249A1F8B2000FF0AE
:1030400079FE70BD3447002070B50B460021002288
:10305000002B5DD1DE4C94F8984024B9A024DD4DBE
:103060002C8078246C8000EB800404EBC004DA4DE3
:1030700005EB8404A478D74D2D88AC4208DB0024EE
:1030800000EB800505EBC005D34E06EB8505AC7063
:1030900000EB800404EBC004CF4D05EB84042479DD
:1030A000CC4D2D88AC4208DB002400EB800505EBFD
:1030B000C005C94E06EB85052C7100EB800404EBBE
:1030C000C004C54D05EB8404E478C24D6D88AC4264
:1030D00008DB002400EB800505EBC005BE4E06EBC7
:1030E0008505EC7000EB800404EBC004BA4D05EBE1
:1030F00084046479B74D6D88AC4208DB002400EB92
:10310000800505EBC005B44E06EB85056C715DE1ED
:1031100000EB800404EBC004AF4D05EB840424797C
:1031200000EB800505EBC005AB4E06EB8505AD78E1
:10313000AC4211DB00EB800404EBC004354605EB28
:103140008404247900EB800505EBC00506EB8505BA
:10315000AD78641BE1B211E000EB800404EBC00425
:103160009D4D05EB8404A47800EB800505EBC005BC
:10317000994E06EB85052D79641BE1B200EB8004C6
:1031800004EBC004944D05EB8404647900EB8005E6
:1031900005EBC005904E06EB8505ED78AC4211DBE2
:1031A00000EB800404EBC004354605EB840464792D
:1031B00000EB800505EBC00506EB8505ED78641B8B
:1031C000E2B211E000EB800404EBC004824D05EB99
:1031D0008404E47800EB800505EBC0057E4E06EB29
:1031E00085056D79641BE2B201FB02F400EB8005FA
:1031F00005EBC005784E06EB8505AC6200EB80045C
:1032000004EBC004354605EB8404A46AB4F5485FBA
:1032100006D3002400EB800505EBC00506F8254029
:103220006B4C94F88E40012C68D100EB800404EBC9
:10323000C004694D05EB840494ED020AFAEE040A19
:10324000B4EEE00AF1EE10FA0ED300EB800404EBCA
:10325000C00405EB840494ED020ADFED600AB4EECD
:10326000E00AF1EE10FA14DD9FED5D0A00EB800438
:1032700004EBC004584D05EB840484ED020A4FF4BE
:10328000487400EB800505EBC005534E06EB850541
:103290006C6100EB800404EBC0044F4D05EB84042B
:1032A00094ED030AFAEE040AB4EEE00AF1EE10FA25
:1032B0000ED300EB800404EBC00405EB840494ED12
:1032C000030ADFED460AB4EEE00AF1EE10FA7DDD06
:1032D0009FED440A00EB800404EBC0043E4D05EB77
:1032E000840484ED030A4FF4966400EB800505EB3B
:1032F000C005394E06EB8505AC6167E000EB800444
:1033000004EBC004344D05EB840494ED020AFAEE9C
:10331000040AB4EEE00AF1EE10FA0ED300EB8004DA
:1033200004EBC00405EB840494ED020ADFED2E0AE1
:10333000B4EEE00AF1EE10FA14DD9FED290A00EB7D
:10334000800404EBC004244D05EB840484ED020AE0
:103350004FF4487400EB800505EBC0051E4E06EBEC
:1033600085056C6100EB800404EBC0041A4D05EB8D
:10337000840494ED030AFAEE040AB4EEE00AF1EED6
:1033800010FA0ED300EB800404EBC00405EB8404B8
:1033900094ED030ADFED140AB4EEE00AF1EE10FA40
:1033A00014DD9FED100A00EB800404EBC0040A4D0D
:1033B00005EB840484ED030A4FF4966400EB80056A
:1033C00005EBC005044E06EB8505AC6170BD000041
:1033D0003447002038100120FC0D01200080E0431C
:1033E0000000A0420000F04200002F4310B5044648
:1033F0000CF090F814BB36A13648FDF722F868B9F6
:103400003549A1F58470FDF71CF818B9002033493F
:1034100008805CE002203149088058E030A12D4846
:10342000FDF70FF8002852D12B49A1F1E700FDF775
:1034300008F800284BD12949088048E0012C21D107
:1034400023A12448FCF7FDFF68B92349A1F1C60078
:10345000FCF7F7FF18B900202049088037E0022068
:103460001E49088033E01EA11A48FCF7EAFF40BB62
:103470001949A1F1A500FCF7E4FF10BB0020174992
:10348000088024E0022C1DD111A11248FCF7D9FFBD
:1034900048B91149A1F18400FCF7D3FF88B9002095
:1034A0000E49088013E00EA10A48FCF7CAFF40B994
:1034B0000949A1F16300FCF7C4FF10B900200749D6
:1034C000088004E0032C02D100200449088010BDCC
:1034D000310000007F1502207817022072010020C1
:1034E000320000000146C888314A9288904206D1D5
:1034F00008892F4AD288904201D100207047CA889B
:103500002B48008A824206D10A892948408A824291
:1035100001D10120F2E7CA882548808B824206D17A
:103520000A892348C08B824201D10220E6E7CA887B
:103530001F48008D824206D10A891D48408D824273
:1035400001D10220DAE7CA881948808E824208D168
:103550000A891748C08E824203D10120154AD067DC
:10356000CCE7CA881248B0F8400082420AD10A89E2
:103570000F48B0F84200824204D101200D4AD067C2
:103580000220BBE7CA880A48B0F84C0082420CD13E
:103590000A890748B0F84E00824206D10220054A47
:1035A000D067012010770220A8E70020A6E70000DE
:1035B000B80000203447002000B587B00121082062
:1035C00006F008FD0121480406F034FD00208DF8C6
:1035D0000A0001208DF80B0002208DF808008DF8FC
:1035E00009002020019001A9204801F08FFA402015
:1035F000019001A91D4801F089FA072205211B4805
:1036000001F0CCFA07220621184801F0C7FA4FF45E
:10361000E13003900020ADF81000ADF81200ADF8D5
:103620001400ADF818000C20ADF8160003A91048DE
:103630000EF064FD012240F225510D480EF038FDD8
:1036400001210B480EF0FEFC26208DF80000002022
:103650008DF8010002208DF8020001208DF8030092
:10366000684605F055FC07B000BD0000000C0240A4
:103670000044004038B50446208800906846FCF7B6
:10368000C9FF85B2284638BD00F0010121B10121F2
:10369000134AA2F8401203E00021114AA2F8401296
:1036A00000F0020119B101210E4A518402E000210B
:1036B0000C4A518400F0100119B10121084A5177D8
:1036C00002E00021064A517700F0200119B10121E2
:1036D000034A117702E00021014A11777047000088
:1036E000344700208049002070B503460C46002571
:1036F000002219E028466E1CF5B2195C0A2901D097
:103700000D2907D1B2F5803F01D3002070BD228082
:103710000120FBE702EB82004200A1F130000244ED
:10372000072D01DB0020F1E7E4E700007FB5034649
:103730000C4600200DE00146C51700EB5575ED1055
:10374000A0EBC505334E755D1E5C75401D54411CD4
:1037500008B202F108018842EDDB002003E0195CA9
:103760002154411C08B29042F9DB002005E01118F9
:10377000595C02AD2954411C08B20828F7DB9DF8BA
:103780000810244DED7869408DF800109DF809105F
:10379000204DED7969408DF801109DF80A101D4DFE
:1037A0002D7869408DF802109DF80B10194D2D7978
:1037B00069408DF803109DF80C10164D6D78694026
:1037C0008DF804109DF80D10124DAD7969408DF8FB
:1037D00005109DF80E100F4DAD7869408DF806105C
:1037E0009DF80F100B4D6D7969408DF80710002082
:1037F0000DE00146C51700EB5575ED10A0EBC505B2
:103800001DF80550265C75402554411C08B29042B5
:10381000EFDB7FBD6C0000207FB50446134600201F
:1038200003E002AD2854421C10B20828F9DB002046
:103830000DE00246C51700EB5575ED10A0EBC50570
:1038400002AE755D265C75400D54421C10B2984264
:10385000EFDB9DF808202A4DED786A408DF80020B6
:103860009DF80920264DED796A408DF801209DF8DC
:103870000A20234D2D786A408DF802209DF80B20F8
:103880001F4D2D796A408DF803209DF80C201C4DAA
:103890006D786A408DF804209DF80D20184DAD79A3
:1038A0006A408DF805209DF80E20154DAD786A40D0
:1038B0008DF806209DF80F20114D6D796A408DF826
:1038C0000720002005E01DF80020C5184A55421CBD
:1038D00010B20728F7DB00200DE00246C51700EB09
:1038E0005575ED10A0EBC505054E755D0E5C754078
:1038F0000D54421C10B203F108029042EDDB7FBD73
:103900006C00002030B10749096841F00101054A07
:10391000116005E00349096821F00101014A1160C5
:1039200070470000000005500149486170470000E1
:103930000000055030B10749096841F48041054A4B
:10394000116005E00349096821F48041014A1160D2
:103950007047000000000550002005490860C8605D
:103960001F20486100208861C86108624862704772
:1039700000000550014600200022044B1B6903EAA9
:1039800001020AB1012000E000207047000005504C
:1039900010B500216F4800F0F5F91020FFF7EAFF9D
:1039A000002859D06C48D0F8F00020B1012818D078
:1039B000022842D12BE06848D0F8F800674909682E
:1039C000084467490968084462490C310860624844
:1039D000D0F8F8006249096808445F49C1F8F80066
:1039E0002CE05D48D0F8FC005E49096808445E4957
:1039F0000968084457490C3108605748D0F8FC0062
:103A00005949096808445449C1F8FC0016E0524875
:103A1000D0F8000155490968084455490968084427
:103A20004C490C3108604C48D0F8000150490968F5
:103A300008444949C1F8000100E000BF00BF01216E
:103A4000444800F09FF94B480068401C4949086011
:103A50001020FFF769FF7CE00820FFF78BFF0028AC
:103A600051D03D48D0F8F00020B1012813D00228F1
:103A700033D121E001203849C1F8F0000020C1F81D
:103A8000F4003848006833490C310860002032499E
:103A9000C1F8FC0022E002202F49C1F8F00001200B
:103AA000C1F8F400314800682A490C310860002050
:103AB0002949C1F8000111E000202749C1F8F000B0
:103AC0000220C1F8F4002548006822490C31086042
:103AD00000202149C1F8F80000E000BF00BF2648DF
:103AE0000068401C24490860002022490860012029
:103AF0001949C1F8EC000121164800F043F90820EB
:103B0000FFF712FF25E00420FFF734FF40B11B4808
:103B10000068401C194908600420FFF705FF18E001
:103B20000220FFF727FF40B115480068401C1449E8
:103B300008600220FFF7F8FE0BE00120FFF71AFFF4
:103B400038B110480068401C0E4908600120FFF79A
:103B5000EBFE10BD2864024034470020F80100202D
:103B60001C000020FC01002020000020000200209A
:103B700024000020080000200C0000201800002075
:103B8000140000201000002029B1074AD268024327
:103B9000054BDA6006E0044AD268C3439BB21A4080
:103BA000014BDA60704700000000055000210E4A0A
:103BB000126844F201039A430B4B1A601A461168CB
:103BC00040F6F2729143028843881A4383881A436D
:103BD000C3881A4303891A4343891A4383891A43C2
:103BE0001143014A116070470000055030B1074988
:103BF000096841F00801054A116005E003490968B8
:103C000021F00801014A11607047000000000550D2
:103C100010B51448D0F8F00020B101280AD00228CD
:103C200018D10FE010480068C0F5804080000F49AF
:103C300008600FE00C480068C0F5804080000C4927
:103C4000086007E008480068C0F580408000094926
:103C5000086000BF00BF08490348001F00F078F863
:103C600010BD0000344700202C6402401C000020DE
:103C7000200000202400002040FF009070B52E4955
:103C80002E4800F065F82E492C48183000F060F8F6
:103C90002C4840782B49097800EB012085B2C5F308
:103CA0000B0505F47060B0F5706F04D10220264951
:103CB00081F880003EE03B2D38DC2348806F18B14E
:103CC0002148806F012812D11F4890F8C000E0B948
:103CD000A42005FB00F6002406E01A48025D3046E9
:103CE000761C1A490A54641CA32CF6D90DE0A420B2
:103CF00005FB00F6002406E01248025D3046761C03
:103D000012490A54641CA32CF6D93B2D04D101207E
:103D10000D4981F880000DE00121084800F032F8DB
:103D200001210648183000F02DF803E00320064971
:103D300081F8800070BD000000F0409F5864024090
:103D40003DF000A0984A002034470020FCE4002009
:103D50000246094B9A4201D2084801E00648103851
:103D600001F000531BB1064B0B40C36002E0044B53
:103D70000B40836070470000106402400060024006
:103D80007D0F7D0F21B1026842F00102026003E065
:103D9000026822F00102026070470000016821F011
:103DA000010101600021016041608160C160016129
:103DB000212141614A49884204D13D21484A103AB3
:103DC00091608CE046491831884205D14FF4746106
:103DD000434A103A916082E041493031884205D12E
:103DE0004FF474113E4A103A916078E03C494831F2
:103DF000884205D14FF07461394A103A91606EE003
:103E000037496031884204D13649354A103AD16089
:103E100065E033497831884204D13349304A103A59
:103E2000D1605CE02E499031884204D12F492C4A60
:103E3000103AD16053E02A49A831884205D14FF0A9
:103E40003D51274A103AD16049E02949884204D1BE
:103E50003D21274A083A116041E02549183188423E
:103E600005D14FF47461224A083A116037E02049C5
:103E70003031884205D14FF474111D4A083A11605F
:103E80002DE01B494831884205D14FF07461184A32
:103E9000083A116023E016496031884204D1114983
:103EA000134A121F11601AE011497831884204D177
:103EB0000D490F4A121F116011E00D4990318842DF
:103EC00004D10A490A4A121F116008E00849A831C2
:103ED000884204D14FF03D51054A121F11607047CE
:103EE000106002403D000020400F002000003D20F7
:103EF0001064024010B501F080034BB122B1436958
:103F000043F08003436103E0436923F0800343618E
:103F100080290BD02AB1036801F01E0423430360FB
:103F200004E0036801F01E04A343036010BD000019
:103F300010B500220268134B1A40CC680B6823436B
:103F40004C6923438C692343CC6923430C6A234384
:103F50004C6A23438C6A23434C6B23438C6B23436F
:103F60001A430260426922F00702D1E90B3423436D
:103F70001A4342610B6943604B6883608B68C3607E
:103F800010BD00003F801CF02DE9F04F0C46174695
:103F90000021002200250026FF23B6E034F802CBE2
:103FA000DFF87891B9F80090ACEB0909DFF870A15F
:103FB000DAF800A009FB0AF9C9F387217F1E34F85B
:103FC000028BDFF85891B9F80090A8EB0909DFF8E7
:103FD00050A1DAF800A009FB0AF9C9F38722DFF83B
:103FE0004491B9F8B490B9F1010F3BD1DFF83491A5
:103FF000D9F87890B9F1000F06D0DFF82891D9F8F8
:104000007890B9F1010F16D106EB86094FEA09192C
:1040100009F14C09B5FBF9FA09FB1A59B9F1000F7E
:104020001FD1092D1DD919461A46A3F1040909F01B
:10403000FF03761C15E006EB86094FEA491909F1E2
:104040009C09B5FBF9FA09FB1A59B9F1000F08D11F
:10405000092D06D919461A46A3F1020909F0FF03F2
:10406000761CAD1CDFF8BC90B9F8B290B9F1050F21
:1040700049D2DFE809F003101112130041EA0129C7
:1040800020F8029B41EA022920F8029B42EA022919
:1040900020F8029B38E000BF00BF00BF00BF00BF98
:1040A00001EB4109DFF880A01AF809A001EB4109F2
:1040B00009F10109DFF870B01BF809904AEA0929F3
:1040C00020F8029B01EB410909F10209DA461AF8CE
:1040D000099002EB420A1BF80AA049EA0A2920F8D3
:1040E000029B02EB420909F10109DA461AF809A01C
:1040F00002EB420909F102091BF809904AEA092971
:1041000020F8029B00E000BF00BFB7F10009A7F153
:1041100001077FF443AFBDE8F08F00001E010020CF
:10412000240100203447002044120220704700EB95
:10413000C001C1EB801000BF011EA0F10100FBD146
:104140007047000010B54FF40061064800F05BFDB9
:1041500006201BF057FB4FF40061024800F055FDAC
:1041600010BD0000001802402DE9F04141480478DC
:1041700000BF414800EB0410006849F21A010840F2
:1041800000B130E03C4800EB0410006800F44070DF
:10419000B0F5407F00D026E0374800EB04100068FF
:1041A000C0F30D40051F40F2EA50854200D91AE0E5
:1041B00045F0004010F098FA06469EB12E4800EBFC
:1041C0000410806820F0030706F10408E81C850845
:1041D00003E001CF48F8040B6D1E002DF9D13046E5
:1041E00019F0FCFF00BF4FF00040234901EB041120
:1041F0000860601C0446022800D100241F480068A3
:10420000401C1E49086008460068C82816D90120CD
:104210001B49886072B610E000BFBFF34F8F19488A
:10422000006800F4E06018490843001D1549086063
:10423000BFF34F8F00BF00BFFEE7EDE70E4800EB76
:104240000410006800F00040002892D009490C706A
:104250000E48406900F0800020B180200B49486181
:10426000002088600A480949486100200349086025
:10427000BDE8F081B1010020D4190220B401002072
:10428000344700200CED00E00000FA0500900240E9
:104290004080010010B5082000F01CF870B10848FB
:1042A000008828B907480088401C0649088002E0B9
:1042B000002004490880082000F006F810BD000026
:1042C000B4000020A80000200149086070470000E9
:1042D000143C014001460020034A12680A400AB11A
:1042E000012000E000207047143C014000212349D8
:1042F0008279002A3AD00A46126803689A430B462C
:104300001A600A1D126803689A430B1D1A6002792D
:1043100011440A6803681A430A60184A083212688E
:1043200003689A43154B08331A601A1D1268036814
:104330009A43124B0C331A604279102A0ED11A1F7D
:10434000126803681A430D4B08331A601A1D12686D
:1043500003681A43094B0C331A600DE00749427990
:1043600011440A6803681A430A6005E0027911449F
:104370000A6803689A430A6070470000003C0140E5
:1043800010B52DED028B0446B0EE692AF0EE491A05
:104390009FED071ADFED070AB0EE680A204603F02A
:1043A000CFFDB0EE408AB0EE480ABDEC028B10BDE6
:1043B000D71E3C430000000010B52DED028BB0EE7F
:1043C000408AF0EE692AB0EE492ADFED071A9FED28
:1043D000071AF0EE680AB0EE480A0CF0EBF8044653
:1043E0002046BDEC028B10BDD71E3C4300000000F0
:1043F00001490860704700000C3C024070B504465B
:104400000A460026092502B909E0012A01D116024F
:1044100005E0022A01D1160201E04FF4407600F0D7
:104420009DF80546092D28D11548006820F44070F4
:104430001349086008460068304308600846006871
:1044400020F0F80008600846006844F002010843C4
:104450000B4908600846006840F48030086000F0AE
:104460007DF805460648006820F00200044908600F
:104470000846006820F0F8000860284670BD00007B
:10448000103C024009201349096801F48031B1F55C
:10449000803F01D101201CE00E49096801F01001A4
:1044A00009B1062015E00B49096801F4807109B1D2
:1044B00002200EE00749096801F0EF0109B1072069
:1044C00007E00449096801F0020109B1082000E091
:1044D000092070470C3C02400348006840F000404F
:1044E0000149086070470000103C024030B50246A8
:1044F0000C46092500F032F80546092D17D10D4864
:10450000006820F440700B490860084600680860A5
:104510000846006840F001000860147000F01EF8C2
:1045200005460448006820F001000249086028465A
:1045300030BD0000103C02400548006800F000401B
:1045400028B1044802490C390860034808607047E4
:10455000103C024023016745AB89EFCD08B5092027
:104560000090FFF78FFF009002E0FFF78BFF0090B5
:104570009DF800000128F8D09DF8000008BD00005B
:1045800010B5024600200023102A03D14FF020442A
:10459000636E0FE0B2F5807F02D10A4C236809E018
:1045A000B2F5805F03D1074C2034236802E0054C4C
:1045B000D434236803EA01048C4201D0002000E0D7
:1045C000012010BD840000A00021D0E900231A437F
:1045D00083685B1E42EA4312C36842EA4321014AF0
:1045E00011607047500100A070B500210022002327
:1045F0000024D0E901563543C66835430669354382
:104600004669354386693543C6693543066A35438D
:10461000466A45EA0601056835B90568AD00A5F1A9
:10462000C045C5F840110DE0D0E907563543466A4C
:1046300045EA0603294D2B600568AD00A5F1C0458C
:10464000C5F84011056835BB856A2D686D1E866A00
:104650007668761E45EA0616856AAD686D1E46EADE
:104660000526856AED686D1E46EA0536856A2D8A3F
:104670006D1E46EA0546856AAD8A6D1E46EA0556F8
:10468000856A2D7E6D1E46EA0562144D0835066862
:1046900045F8262020E0856A2D686D1E866A7668BA
:1046A000761E45EA0616856AAD686D1E46EA052641
:1046B000856A2D8A6D1E46EA0542856AED686D1E83
:1046C0002E03856AAD8A6D1E46EA0554034D0835F2
:1046D0002C60066845F8262070BD0000400100A04F
:1046E00061B18200A2F1C042D2F8402142F40073CD
:1046F0008200A2F1C042C2F840310CE08200A2F177
:10470000C042D2F8402147F6FF531A408300A3F17C
:10471000C043C3F8402170470449096841EA400199
:104720004FF02042C2F8541170470000540100A01D
:104730002DE9F04395B004464FF007084FF000090B
:10474000002600276078532832D1FFF7F5FEF320CA
:10475000FFF74EFE4FF40061564800F054FA022174
:104760003820FFF74BFE804602214020FFF746FE2F
:1047700080464FF400614F4800F047FA00204E4950
:10478000087001204D49487303200BF00BF90120FC
:104790000BF008F902200BF005F900204749A1F8B9
:1047A0005000886001200873404615B0BDE8F083D2
:1047B000607844282CD1A078FF2829DA4FF0070828
:1047C000A0783D490978884201D04046EDE74FF492
:1047D0000061384800F017FA00250AE0EA1CA15CE5
:1047E000A278374B03EB82225019FFF77FFE8046F9
:1047F0006D1CB5F5806FF1D34FF400612D4800F0CA
:1048000004FA2D480078401C2B4908704046CCE73C
:10481000607846284BD1A0780006E17840EA014054
:10482000217940EA0120617940EA0109E079A17922
:1048300040EA012614F06CFC494621481EF096F926
:104840000746B7421DD14FF009084FF400611948DF
:1048500000F0D9F93220DFF86CC000DF1AA004F0B4
:10486000B3FA01200BF09EF802200BF09BF8032016
:104870000BF098F86420DFF84CC000DF3BF05AFCE6
:1048800015E04FF00708C820DFF838C000DF3B46CE
:10489000324614A101A80EF03DFB01A804F094FAE1
:1048A0001CA004F091FA6420DFF818C000DF404635
:1048B0007BE70000000C02404A00002080490020F5
:1048C0000000060879EA01080A0D203E20462F570D
:1048D000205570646174652053746172742E2E2E9D
:1048E000000000000A0D203E3E435243204E6F74EC
:1048F000204D61746368204765746372633A307851
:1049000025303478202C206D796372633A30782515
:10491000303478000A0D203E3E462F57204E6F74EB
:1049200020557064617465204552522E2E2E000071
:104930002DE9F04395B004464FF009084FF0000907
:1049400000260027607841282AD1FFF7F5FDF320E3
:10495000FFF74EFD4FF400614B4800F054F902217F
:104960004820FFF74BFD80464FF40061464800F0B9
:104970004CF901204549487303200BF013F801203E
:104980000BF010F802200BF00DF800203F49A1F8C1
:104990005000886001200873404615B0BDE8F083E0
:1049A0006078552820D1A07801281DDC4FF0070839
:1049B0004FF40061344800F026F900250AE0EA1CB3
:1049C000A15CA278324B03EB82225019FFF78EFDD7
:1049D00080466D1CB5F5806FF1D34FF400612A4815
:1049E00000F013F94046D8E76078472849D1A0780D
:1049F0000006E17840EA0140217940EA012061792E
:104A000040EA0109E079A17940EA012614F080FB2F
:104A100049461F481EF0AAF80746B7421BD100BFFF
:104A20004FF40061184800F0EEF83220DFF864C05F
:104A300000DF19A004F0C8F901200AF0B3FF02203A
:104A40000AF0B0FF03200AF0ADFF6420DFF844C095
:104A500000DF0EF0E3F94FF00708C820DFF834C09C
:104A600000DF3B46324612A101A80EF053FA01A81E
:104A700004F0AAF91CA004F0A7F96420DFF814C020
:104A800000DF404689E70000000C0240804900201A
:104A900000000A0879EA01080A0D203E2055474126
:104AA0005F7570646174652073746172742E0000A8
:104AB0000A0D203E3E2055474120435243204E6F71
:104AC00074204D61746368204765746372633A3083
:104AD0007825303478202C206D796372633A3078F1
:104AE00025303478000000000A0D203E3E462F5746
:104AF000204E6F74204E4557205547412055706415
:104B0000617465204552522E2E2E0000F0B50A46E3
:104B100000210023002400BF3DE0012505FA01F338
:104B2000156805EA03049C4234D105684F0003264A
:104B3000BE40B543056015794E00B5400668354363
:104B400005601579012D02D01579022D16D18568E1
:104B50004F000326BE40B543856055794E00B540F1
:104B6000866835438560456801268E40B5434560BB
:104B7000456896798E40B6B235434560C5684F00AA
:104B80000326BE40B543C560D5794E00B540C66822
:104B90003543C560491C1029BFD3F0BDF0B50023D3
:104BA00000244D07ED0E02FA05F3CE1000F12005AA
:104BB00055F826504E07F70E0F26BE40B543CF10CE
:104BC00000F1200646F82750CE1000F1200555F8D8
:104BD000265045EA0304CE1000F1200545F8264092
:104BE000F0BD0246002013690B400BB1012000E02C
:104BF000002070470246002053690B400BB1012092
:104C000000E000207047418370470183704742698C
:104C10004A404261704700000448B0F84000401C20
:104C2000034908830846008B704700008049002034
:104C3000441502200348B0F840000349C8820846E2
:104C4000C08A704780490020441502200EB50AF042
:104C5000A9FC0848A0F11001074A1268CDE900211B
:104C600002900648A1F117020549036805480EF0B5
:104C700051F90EBDAE15022068010020640100202C
:104C80001CB50208F009022010B5A0B03224254856
:104C9000408C012844D124480088012840DB23A10E
:104CA0002648FBF7A9FB002837D024490819244AD5
:104CB00024A100F07BF826490880084600880028D7
:104CC0000CDD0220184908802148028821A168468D
:104CD0000EF020F9684604F077F802E0012012494E
:104CE000088016490819284A28A100F05FF81349DE
:104CF0000819254A613A26A100F058F80F49081909
:104D0000214A8A3A24A100F051F80C4908191E4A98
:104D10009A3A23A100F04AF802E0022002490880F2
:104D200020B010BD804900207201002041757468D8
:104D30006F72697A6174696F6E3A0000F007022041
:104D400078170220726573706F6E73650000000043
:104D5000AE0100200A0D2041206D6F646520696E50
:104D6000204E6F742047657420696E666F2E2E2E5C
:104D700020726573706F6E73652065727220636F49
:104D800064652025642000003016022075726900D9
:104D90006E6F6E63650000007265616C6D000000EF
:104DA000757365726E616D65000000002DE9F0435A
:104DB00091B081460F46904639464846FBF71CFBAA
:104DC0000646002E38D01DA13846FBF73AFB28B91D
:104DD0001DA13046FBF710FB054604E01DA130463F
:104DE000FBF70AFB05462DB300202870314601A8C9
:104DF000FBF735FB18A101A8FBF7FEFA0446BCB18E
:104E0000641C641C214601A8FBF729FB13A101A81F
:104E1000FBF7F2FA04464CB10020207001A940468D
:104E2000FBF71DFB002011B0BDE8F0830420FAE77A
:104E30000320F8E70220F6E70120F4E772657370BB
:104E40006F6E736500000000557365722D416765D4
:104E50006E7400002C0000003D00000022000000E5
:104E60002DE9F041002500266348D0F8F40020B178
:104E700001280DD002281FD114E04FF050405F49A7
:104E800048665D48D0F8F8005B49C1F8040114E0B9
:104E90005B485A4948665848D0F8FC005649C1F862
:104EA00004010AE05748554948665348D0F80001C4
:104EB0005149C1F8040100E000BF00BF4E48D0F8DE
:104EC0000401B8BB4C48D0F8F400022801D10126F7
:104ED0000BE04948D0F8F400012801D1002604E095
:104EE0004548D0F8F40000B9022626B1012E0DD0B5
:104EF000022E20D114E04FF05040404948663E4811
:104F0000D0F8F8003C49C1F8040115E03C483B49A1
:104F100048663948D0F8FC003749C1F804010BE075
:104F20003848364948663448D0F800013249C1F85B
:104F3000040101E001E000BF00BF002408E02F48A9
:104F4000406E005D10B9681C85B200E002E0641C90
:104F5000102CF4D300BF2948406E284427494866E6
:104F60000025294888660846C08901281ED127489F
:104F7000806801281AD12048D0F80401B0F5163F06
:104F80000ED923480088401C214908800846008823
:104F9000012810DD0020088001201E4908800AE059
:104FA00000201B4908801B49088004E000201849A4
:104FB00008801849088018480088002809DD16482C
:104FC0000088401E144908800020114908801149BA
:104FD00008801048008850B9074BD3F804310127E6
:104FE00007EB5302054B596E986EFDF715FDDFF880
:104FF0002CC000DFBDE8F08134470020804900204C
:10500000000010D0000020D0000070D04415022015
:10501000600100205E01002062010020E5F401082B
:105020007CB500244B2516F0F1FF154800880128B7
:1050300023D10020134908601348144948660846E4
:10504000406E134908601348806F022805D111484B
:10505000B0F8B200002800DD32250F48CDE9005439
:10506000438802880A4801680C48006817F024F950
:10507000044800680749C1F8040101207CBD000014
:105080005A0100208C010020000060D080490020DF
:1050900088010020344700203810012084010020BE
:1050A00010B53D488068012865D13C48B0F8EA0059
:1050B000082808D14FF42070394908804FF4F07067
:1050C0003849088066E03548B0F8EA00042807D17E
:1050D0004FF4A07032490880F0203249088059E02E
:1050E0002E48B0F8EA00102808D14FF448702C4937
:1050F00008804FF416702B4908804BE02748B0F821
:10510000EA00202807D14001254908804FF440706B
:10511000244908803EE02148B0F8EA00402808D140
:105120004FF4C8601E4908804FF496601D490880FE
:1051300030E01A48B0F8EA00802808D14FF4F06057
:10514000174908804FF487601649088022E008203C
:105150001249A1F8EA00062004F070FB3220DFF8C3
:1051600048C000DF4FF420700D4908804FF4F07004
:105170000C4908800EE00D480088094908800B485A
:105180004088084908800548806F18B1012003490C
:10519000C1F8900010BD00004415022034470020E3
:1051A000540100205601002079EA0108381001203E
:1051B000F0B597B005460E46144601A802F0C4FFAC
:1051C0002846FBF737F907463A46294601A803F077
:1051D00025FC012212A101A803F020FC3046FBF7B8
:1051E00029F907463A46314601A803F017FC012287
:1051F0000BA101A803F012FC2046FBF71BF90746A0
:105200003A46214601A803F009FC01A9054802F02D
:1052100017FF05490348FDF705FA17B0F0BD000078
:105220003A000000D83600206836002070B596B0ED
:1052300004460D46684602F087FF2046FBF7FAF861
:10524000064632462146684603F0E8FB01220BA1E0
:10525000684603F0E3FB2846FBF7ECF806463246C7
:105260002946684603F0DAFB6946054802F0E8FE85
:1052700004490348FDF7D6F916B070BD3A000000A6
:10528000E83600208936002010B5294A29480168EF
:1052900029480068FFF78CFF254B10332748012170
:1052A000026827A000F0B8F9214B523323480121AE
:1052B000026825A000F0B0F91D4B94331F4801216E
:1052C000026824A000F0A8F9194BD6331B4801212D
:1052D000026822A000F0A0F92248406808B901F055
:1052E000B3FC134B313315480221026814A000F0BF
:1052F00093F90F4B733311480221026812A000F09A
:105300008BF90B4BB5330D480221026811A000F058
:1053100083F9074BF7330948022102680FA000F018
:105320007BF91048406808B901F08EFC10BD000000
:105330005C48002078010020740100207C010020DE
:105340004F5054494F4E53004445534352494245F0
:10535000000000005345545550000000504C415986
:1053600000000000344700202DE9F0472DED028BAE
:1053700004460D4600260027DFF86880B1461A482B
:10538000806F02280AD10126A02C05DA782D03DAD5
:10539000002C01DB002D0BDA002609E00126502C41
:1053A00005DA3C2D03DA002C01DB002D00DA0026A3
:1053B000012E06D10D48008805FB004087B238F861
:1053C0001790012E05D14846FEF7DAFFB0EE408A6D
:1053D00005E09FED070ABDEC028BBDE8F087B0EE5B
:1053E000480AF8E7000040D0344700203810012078
:1053F0000000000070B5044604EB840000EBC4001C
:105400000F4911F8200001280AD104EB840101EBB7
:10541000C4010B4A02EB8101888BFEF7B1FF01E06A
:10542000002070BDF2EE040A60EE200AFDEEE00AF4
:1054300010EE905A0348B0F8A800284480B2F0E774
:10544000FC0D01203447002070B586B004460D469F
:1054500072B604EB840101EBC401614A02EB8101E5
:10546000088AFEF78DFF04EB840000EBC4005C4962
:1054700001EB8000D0ED080A30EE600A04EB8400F6
:1054800000EBC40001EB800080ED020A62B672B648
:1054900004EB840101EBC401514A02EB8101488A0B
:1054A000FEF76EFF04EB840000EBC4004C4901EBF7
:1054B0008000D0ED080A30EE600A04EB840000EBB7
:1054C000C40001EB800080ED030A62B604EB8400A7
:1054D00000EBC400424911F8202042A128460DF0FB
:1054E00019FD04EB840000EBC4003D4901EB800092
:1054F000D0ED020AB2EE041AB7EE000A00EE810AFD
:10550000BDEEC00A04EB840000EBC40001EB800098
:1055100080ED050A04EB840000EBC40001EB800081
:10552000D0ED030AB2EE041AB7EE000A00EE810ACB
:10553000BDEEC00A04EB840000EBC40001EB800068
:1055400080ED060AE0B20021FDF77EFDE0B2012108
:10555000FDF77AFD244890F8D40004EB840101EBB8
:10556000C4011F4A02EB8101497804EB840202EB7B
:10557000C4021B4B03EB8202926904EB840303EB2E
:10558000C403174E06EB83035B69CDE90232CDE914
:10559000041004EB840000EBC400314601EB8000F2
:1055A000407904EB840101EBC401324602EB810136
:1055B0000979CDE9001004EB840000EBC40011462A
:1055C00001EB8000C37804EB840000EBC40001EB26
:1055D0008000827805A1681C0DF09CFC06B070BDAF
:1055E000FC0D012025640000344700202C253034B8
:1055F000642C253034642C253034642C25303464FC
:105600002C253034642C253034642C253034642C23
:105610002530346400000000F0B599B007460C4610
:1056200015461E46012C0DD12448C078234989789F
:10563000CDE9001021484378027821A128480DF0D7
:1056400069FC0EE0022C0CD11C48C0781B498978FB
:10565000CDE9001019484378027822A120480DF0C6
:1056600059FC1F493846FFF7E1FD2648056003A8AD
:1056700002F06AFD2022244903A803F0CFF9012299
:1056800022A103A803F0CAF920221E48016803A83A
:1056900003F0C4F901221DA103A803F0BFF92022E1
:1056A0001B4903A803F0BAF903A91A4802F0C8FC81
:1056B00031461848FCF7B6FF19B0F0BD360000209F
:1056C000727473703A2F2F25642E25642E25642E54
:1056D00025643A3535342F6D6A7065672F310000C7
:1056E000AA360020727473703A2F2F25642E256419
:1056F0002E25642E25643A3535342F6D6A70656722
:105700002F32000028000020683600203A000000F8
:1057100089360020F8360020002119E00F4850F8A3
:1057200021000F4A5268904210D10E4800690128AA
:1057300009D10D4830F81100094A5288904205D12C
:10574000481C80B27047481C80B2FBE7481C81B2FD
:105750000329E3DB4FF6FF70F4E700000040002070
:105760001837002034470020500000202DE9F04178
:10577000064600273546002419E060196E49085C8A
:105780003A2803D12819401C85B212E060196A49F1
:10579000085C2F2804D12819401C85B2012708E095
:1057A00060196549095C65480155601C84B2122C7A
:1057B000E3DB00BFAFB9002410E060195E49085C6C
:1057C0002F2803D12819401C85B209E060195A49D5
:1057D000095C5A4810300155601C84B2082CECDB7F
:1057E0000FE0352055491B3981F82B0035215348EE
:1057F0001B3880F82C10342180F82D10002180F8FF
:105800002E10002410E060194B49085C2F2803D1AA
:105810002819401C85B209E060194749095C4748CE
:1058200018300155601C84B2082CECDB00BF00244A
:1058300010E060194049085C202803D12819401C59
:1058400085B209E060193C49095C3C4820300155AB
:10585000601C84B2082CECDB00BF19E03648405DC8
:10586000432813D13449681C085C53280ED1A81C66
:10587000085C65280AD1E81C085C712806D1281D3F
:10588000085C3A2802D1281D85B202E0681C85B266
:10589000E4E700BF681C85B2002446E02846691C86
:1058A0008DB22549095C2548283001552248405DC4
:1058B0000D2838D1002221482830611C4254002193
:1058C000433880F846101E490C700846007860B9CD
:1058D0001A4B1B3B93F8432093F8441093F8450070
:1058E000FCF776FE174908701CE01548007801287F
:1058F0000CD1124B1B3B93F8442093F8431093F8C0
:105900004500FCF765FE0F4908700BE00B4B1B3B95
:1059100093F8452093F8441093F84300FCF758FEA1
:105920000849087003E0601C84B2032CB6DB00BF9A
:10593000FFF7AAF9BDE8F081F00702205F15022009
:10594000710100207001002010B51548B0F8B200B8
:10595000012806D002280BD0032810D004281CD11F
:1059600014E04FF440720F490F48FAF715FD15E0A7
:105970004FF440720D490C48FAF70EFD0EE04FF45B
:1059800040720B490848FAF707FD07E04FF44072F0
:1059900008490548FAF700FD00E000BF00BF10BD50
:1059A00034470020788502084412022078880208D3
:1059B000788B0208788E020830B5E3B004464FF0C9
:1059C000FF305A4988605AA158483330FAF739FDF8
:1059D00040B959A155483B30FAF733FD10B90020C2
:1059E0005249886052A151483330FAF72AFD40B934
:1059F00052A14E483B30FAF724FD10B901204B4923
:105A00008860FFF74DFB49488068401C38B1474823
:105A10008068012817D14A48B0F8E80098B9494889
:105A2000424A433248A1036853480DF073FA524882
:105A3000FAF700FD054600232A464F49204619F093
:105A40006DFF63B030BD18F03DF805464B48008847
:105A50004B490988494A1288494B1B88CDE90032D5
:105A6000CDE90210314B1B332A46464918A80DF0E8
:105A700051FA2E48806810B101280AD104E042A1F1
:105A800004A80DF047FA04E041A104A80DF042FA81
:105A900000BF00BF04A8254B2B33A3F110023EA189
:105AA000009008A80DF036FA3F48408C88B918A835
:105AB000FAF7C0FC054618A808A9CDE90015029020
:105AC00020481A4A4332394903682B480DF022FA1C
:105AD0001FE037480088012801D1FDF787FC3448D2
